{
  "contractName": "CurveConvexLP",
  "abi": [
    {
      "anonymous": false,
      "inputs": [
        {
          "indexed": true,
          "internalType": "address",
          "name": "previousOwner",
          "type": "address"
        },
        {
          "indexed": true,
          "internalType": "address",
          "name": "newOwner",
          "type": "address"
        }
      ],
      "name": "OwnershipTransferred",
      "type": "event"
    },
    {
      "inputs": [],
      "name": "owner",
      "outputs": [
        {
          "internalType": "address",
          "name": "",
          "type": "address"
        }
      ],
      "stateMutability": "view",
      "type": "function",
      "constant": true
    },
    {
      "inputs": [],
      "name": "renounceOwnership",
      "outputs": [],
      "stateMutability": "nonpayable",
      "type": "function"
    },
    {
      "inputs": [
        {
          "internalType": "address",
          "name": "newOwner",
          "type": "address"
        }
      ],
      "name": "transferOwnership",
      "outputs": [],
      "stateMutability": "nonpayable",
      "type": "function"
    },
    {
      "inputs": [],
      "name": "oneShotLendAll",
      "outputs": [],
      "stateMutability": "nonpayable",
      "type": "function"
    },
    {
      "inputs": [
        {
          "internalType": "uint256",
          "name": "daiAmount",
          "type": "uint256"
        },
        {
          "internalType": "uint256",
          "name": "usdcAmount",
          "type": "uint256"
        },
        {
          "internalType": "uint256",
          "name": "usdtAmount",
          "type": "uint256"
        }
      ],
      "name": "oneShotLend",
      "outputs": [],
      "stateMutability": "nonpayable",
      "type": "function"
    },
    {
      "inputs": [
        {
          "internalType": "int128",
          "name": "coinIndex",
          "type": "int128"
        }
      ],
      "name": "oneShotWithdrawAll",
      "outputs": [],
      "stateMutability": "nonpayable",
      "type": "function"
    },
    {
      "inputs": [
        {
          "internalType": "uint256",
          "name": "toWithdrawInWei",
          "type": "uint256"
        },
        {
          "internalType": "int128",
          "name": "coinIndex",
          "type": "int128"
        }
      ],
      "name": "oneShotWithdraw",
      "outputs": [],
      "stateMutability": "nonpayable",
      "type": "function"
    },
    {
      "inputs": [],
      "name": "isConvexShutdown",
      "outputs": [
        {
          "internalType": "bool",
          "name": "",
          "type": "bool"
        }
      ],
      "stateMutability": "view",
      "type": "function",
      "constant": true
    },
    {
      "inputs": [
        {
          "internalType": "uint256",
          "name": "tokenIndex",
          "type": "uint256"
        }
      ],
      "name": "getPoolBalanceToken",
      "outputs": [
        {
          "internalType": "uint256",
          "name": "",
          "type": "uint256"
        }
      ],
      "stateMutability": "view",
      "type": "function",
      "constant": true
    },
    {
      "inputs": [],
      "name": "getPoolBalance",
      "outputs": [
        {
          "internalType": "uint256[3]",
          "name": "",
          "type": "uint256[3]"
        }
      ],
      "stateMutability": "view",
      "type": "function",
      "constant": true
    },
    {
      "inputs": [],
      "name": "get3CRVLPBalance",
      "outputs": [
        {
          "internalType": "uint256",
          "name": "",
          "type": "uint256"
        }
      ],
      "stateMutability": "view",
      "type": "function",
      "constant": true
    },
    {
      "inputs": [],
      "name": "getStakedConvexLPBalance",
      "outputs": [
        {
          "internalType": "uint256",
          "name": "",
          "type": "uint256"
        }
      ],
      "stateMutability": "view",
      "type": "function",
      "constant": true
    },
    {
      "inputs": [],
      "name": "getClaimableRewards",
      "outputs": [
        {
          "internalType": "uint256",
          "name": "",
          "type": "uint256"
        }
      ],
      "stateMutability": "view",
      "type": "function",
      "constant": true
    }
  ],
  "bytecode": "0x60806040526040518060600160405280736b175474e89094c44da98b954eedeac495271d0f73ffffffffffffffffffffffffffffffffffffffff1673ffffffffffffffffffffffffffffffffffffffff16815260200173a0b86991c6218b36c1d19d4a2e9eb0ce3606eb4873ffffffffffffffffffffffffffffffffffffffff1673ffffffffffffffffffffffffffffffffffffffff16815260200173dac17f958d2ee523a2206206994597c13d831ec773ffffffffffffffffffffffffffffffffffffffff1673ffffffffffffffffffffffffffffffffffffffff168152506002906003620000f1929190620001f9565b50348015620000ff57600080fd5b5062000120620001146200012d60201b60201c565b6200013560201b60201c565b600180819055506200029a565b600033905090565b60008060009054906101000a900473ffffffffffffffffffffffffffffffffffffffff169050816000806101000a81548173ffffffffffffffffffffffffffffffffffffffff021916908373ffffffffffffffffffffffffffffffffffffffff1602179055508173ffffffffffffffffffffffffffffffffffffffff168173ffffffffffffffffffffffffffffffffffffffff167f8be0079c531659141344cd1fd0a4f28419497f9722a3daafe3b4186f6b6457e060405160405180910390a35050565b826003810192821562000268579160200282015b82811115620002675782518260006101000a81548173ffffffffffffffffffffffffffffffffffffffff021916908373ffffffffffffffffffffffffffffffffffffffff160217905550916020019190600101906200020d565b5b5090506200027791906200027b565b5090565b5b80821115620002965760008160009055506001016200027c565b5090565b6124a180620002aa6000396000f3fe608060405234801561001057600080fd5b50600436106100cf5760003560e01c8063a222b5331161008c578063ecc395ec11610066578063ecc395ec146101c8578063ee9eb2b5146101e6578063f2fde38b14610202578063ffe0cbc61461021e576100cf565b8063a222b5331461015c578063abd70aa21461018c578063b737dc8d146101aa576100cf565b8063514823d8146100d4578063567d0f07146100f05780635b39ed3c146100fa578063715018a6146101185780637e81e9cb146101225780638da5cb5b1461013e575b600080fd5b6100ee60048036038101906100e991906118a1565b61023c565b005b6100f8610334565b005b610102610426565b60405161010f9190611903565b60405180910390f35b6101206104bb565b005b61013c60048036038101906101379190611957565b610543565b005b610146610632565b60405161015391906119d8565b60405180910390f35b610176600480360381019061017191906119f3565b61065b565b6040516101839190611903565b60405180910390f35b6101946106f2565b6040516101a19190611acb565b60405180910390f35b6101b2610747565b6040516101bf9190611903565b60405180910390f35b6101d06107dc565b6040516101dd9190611b01565b60405180910390f35b61020060048036038101906101fb9190611b1c565b61086b565b005b61021c60048036038101906102179190611b75565b610966565b005b610226610a5d565b6040516102339190611903565b60405180910390f35b610244610af1565b73ffffffffffffffffffffffffffffffffffffffff16610262610632565b73ffffffffffffffffffffffffffffffffffffffff16146102b8576040517f08c379a00000000000000000000000000000000000000000000000000000000081526004016102af90611bff565b60405180910390fd5b6002600154036102fd576040517f08c379a00000000000000000000000000000000000000000000000000000000081526004016102f490611c6b565b60405180910390fd5b6002600181905550610310838383610af9565b600061031a610426565b9050610327816001610baf565b5060018081905550505050565b61033c610af1565b73ffffffffffffffffffffffffffffffffffffffff1661035a610632565b73ffffffffffffffffffffffffffffffffffffffff16146103b0576040517f08c379a00000000000000000000000000000000000000000000000000000000081526004016103a790611bff565b60405180910390fd5b6002600154036103f5576040517f08c379a00000000000000000000000000000000000000000000000000000000081526004016103ec90611c6b565b60405180910390fd5b6002600181905550610405610d38565b600061040f610426565b905061041c816001610baf565b5060018081905550565b6000736c3f90f043a72fa612cbac8115ee7e52bde6e49073ffffffffffffffffffffffffffffffffffffffff166370a08231306040518263ffffffff1660e01b815260040161047591906119d8565b602060405180830381865afa158015610492573d6000803e3d6000fd5b505050506040513d601f19601f820116820180604052508101906104b69190611ca0565b905090565b6104c3610af1565b73ffffffffffffffffffffffffffffffffffffffff166104e1610632565b73ffffffffffffffffffffffffffffffffffffffff1614610537576040517f08c379a000000000000000000000000000000000000000000000000000000000815260040161052e90611bff565b60405180910390fd5b6105416000610dd8565b565b61054b610af1565b73ffffffffffffffffffffffffffffffffffffffff16610569610632565b73ffffffffffffffffffffffffffffffffffffffff16146105bf576040517f08c379a00000000000000000000000000000000000000000000000000000000081526004016105b690611bff565b60405180910390fd5b600260015403610604576040517f08c379a00000000000000000000000000000000000000000000000000000000081526004016105fb90611c6b565b60405180910390fd5b600260018190555061061582610e9c565b61061e82610f83565b6106278161101a565b600180819055505050565b60008060009054906101000a900473ffffffffffffffffffffffffffffffffffffffff16905090565b600073bebc44782c7db0a1a60cb6fe97d0b483032ff1c773ffffffffffffffffffffffffffffffffffffffff16634903b0d1836040518263ffffffff1660e01b81526004016106aa9190611903565b602060405180830381865afa1580156106c7573d6000803e3d6000fd5b505050506040513d601f19601f820116820180604052508101906106eb9190611ca0565b9050919050565b6106fa611844565b6000610706600061065b565b90506000610714600161065b565b90506000610722600261065b565b9050604051806060016040528084815260200183815260200182815250935050505090565b600073689440f2ff927e1f24c72f1087e1faf471ece1c873ffffffffffffffffffffffffffffffffffffffff166370a08231306040518263ffffffff1660e01b815260040161079691906119d8565b602060405180830381865afa1580156107b3573d6000803e3d6000fd5b505050506040513d601f19601f820116820180604052508101906107d79190611ca0565b905090565b60008073f403c135812408bfbe8713b5a23a04b3d48aae3173ffffffffffffffffffffffffffffffffffffffff1663bf86d6906040518163ffffffff1660e01b8152600401602060405180830381865afa15801561083e573d6000803e3d6000fd5b505050506040513d601f19601f820116820180604052508101906108629190611cf9565b90508091505090565b610873610af1565b73ffffffffffffffffffffffffffffffffffffffff16610891610632565b73ffffffffffffffffffffffffffffffffffffffff16146108e7576040517f08c379a00000000000000000000000000000000000000000000000000000000081526004016108de90611bff565b60405180910390fd5b60026001540361092c576040517f08c379a000000000000000000000000000000000000000000000000000000000815260040161092390611c6b565b60405180910390fd5b6002600181905550600061093e610747565b905061094981610e9c565b61095281610f83565b61095b8261101a565b506001808190555050565b61096e610af1565b73ffffffffffffffffffffffffffffffffffffffff1661098c610632565b73ffffffffffffffffffffffffffffffffffffffff16146109e2576040517f08c379a00000000000000000000000000000000000000000000000000000000081526004016109d990611bff565b60405180910390fd5b600073ffffffffffffffffffffffffffffffffffffffff168173ffffffffffffffffffffffffffffffffffffffff1603610a51576040517f08c379a0000000000000000000000000000000000000000000000000000000008152600401610a4890611d98565b60405180910390fd5b610a5a81610dd8565b50565b600073689440f2ff927e1f24c72f1087e1faf471ece1c873ffffffffffffffffffffffffffffffffffffffff16628cc262306040518263ffffffff1660e01b8152600401610aab91906119d8565b602060405180830381865afa158015610ac8573d6000803e3d6000fd5b505050506040513d601f19601f82011682018060405250810190610aec9190611ca0565b905090565b600033905090565b60006040518060600160405280858152602001848152602001838152509050610b2181611184565b60006001905073bebc44782c7db0a1a60cb6fe97d0b483032ff1c773ffffffffffffffffffffffffffffffffffffffff16634515cef383836040518363ffffffff1660e01b8152600401610b76929190611db8565b600060405180830381600087803b158015610b9057600080fd5b505af1158015610ba4573d6000803e3d6000fd5b505050505050505050565b610bb76107dc565b15610bf7576040517f08c379a0000000000000000000000000000000000000000000000000000000008152600401610bee90611e53565b60405180910390fd5b736c3f90f043a72fa612cbac8115ee7e52bde6e49073ffffffffffffffffffffffffffffffffffffffff1663095ea7b373f403c135812408bfbe8713b5a23a04b3d48aae31846040518363ffffffff1660e01b8152600401610c5a929190611e73565b6020604051808303816000875af1158015610c79573d6000803e3d6000fd5b505050506040513d601f19601f82011682018060405250810190610c9d9190611cf9565b5073f403c135812408bfbe8713b5a23a04b3d48aae3173ffffffffffffffffffffffffffffffffffffffff166343a0d066600984846040518463ffffffff1660e01b8152600401610cf093929190611e9c565b6020604051808303816000875af1158015610d0f573d6000803e3d6000fd5b505050506040513d601f19601f82011682018060405250810190610d339190611cf9565b505050565b6000610d42611232565b9050610d4d81611184565b60006001905073bebc44782c7db0a1a60cb6fe97d0b483032ff1c773ffffffffffffffffffffffffffffffffffffffff16634515cef383836040518363ffffffff1660e01b8152600401610da2929190611db8565b600060405180830381600087803b158015610dbc57600080fd5b505af1158015610dd0573d6000803e3d6000fd5b505050505050565b60008060009054906101000a900473ffffffffffffffffffffffffffffffffffffffff169050816000806101000a81548173ffffffffffffffffffffffffffffffffffffffff021916908373ffffffffffffffffffffffffffffffffffffffff1602179055508173ffffffffffffffffffffffffffffffffffffffff168173ffffffffffffffffffffffffffffffffffffffff167f8be0079c531659141344cd1fd0a4f28419497f9722a3daafe3b4186f6b6457e060405160405180910390a35050565b6000610ea6610a5d565b905060008103610eeb576040517f08c379a0000000000000000000000000000000000000000000000000000000008152600401610ee290611f91565b60405180910390fd5b73689440f2ff927e1f24c72f1087e1faf471ece1c873ffffffffffffffffffffffffffffffffffffffff166338d074368360016040518363ffffffff1660e01b8152600401610f3b929190611fb1565b6020604051808303816000875af1158015610f5a573d6000803e3d6000fd5b505050506040513d601f19601f82011682018060405250810190610f7e9190611cf9565b505050565b73f403c135812408bfbe8713b5a23a04b3d48aae3173ffffffffffffffffffffffffffffffffffffffff1663441a3e706009836040518363ffffffff1660e01b8152600401610fd3929190611fda565b6020604051808303816000875af1158015610ff2573d6000803e3d6000fd5b505050506040513d601f19601f820116820180604052508101906110169190611cf9565b5050565b6000611024610426565b90507fffffffffffffffffffffffffffffffffffffffffffffffffffffffffffffffff82600f0b036110f9576000604051806060016040528060008152602001600081526020016000815250905073bebc44782c7db0a1a60cb6fe97d0b483032ff1c773ffffffffffffffffffffffffffffffffffffffff1663ecb586a583836040518363ffffffff1660e01b81526004016110c1929190612003565b600060405180830381600087803b1580156110db57600080fd5b505af11580156110ef573d6000803e3d6000fd5b5050505050611180565b600073bebc44782c7db0a1a60cb6fe97d0b483032ff1c773ffffffffffffffffffffffffffffffffffffffff16631a4d01d28385846040518463ffffffff1660e01b815260040161114c9392919061203b565b600060405180830381600087803b15801561116657600080fd5b505af115801561117a573d6000803e3d6000fd5b50505050505b5050565b60005b600381101561122e5761121b73bebc44782c7db0a1a60cb6fe97d0b483032ff1c78383600381106111bb576111ba612072565b5b6020020151600284600381106111d4576111d3612072565b5b0160009054906101000a900473ffffffffffffffffffffffffffffffffffffffff1673ffffffffffffffffffffffffffffffffffffffff166114789092919063ffffffff16565b8080611226906120d0565b915050611187565b5050565b61123a611844565b6000600260006003811061125157611250612072565b5b0160009054906101000a900473ffffffffffffffffffffffffffffffffffffffff1673ffffffffffffffffffffffffffffffffffffffff166370a08231306040518263ffffffff1660e01b81526004016112ab91906119d8565b602060405180830381865afa1580156112c8573d6000803e3d6000fd5b505050506040513d601f19601f820116820180604052508101906112ec9190611ca0565b90506000600260016003811061130557611304612072565b5b0160009054906101000a900473ffffffffffffffffffffffffffffffffffffffff1673ffffffffffffffffffffffffffffffffffffffff166370a08231306040518263ffffffff1660e01b815260040161135f91906119d8565b602060405180830381865afa15801561137c573d6000803e3d6000fd5b505050506040513d601f19601f820116820180604052508101906113a09190611ca0565b90506000600280600381106113b8576113b7612072565b5b0160009054906101000a900473ffffffffffffffffffffffffffffffffffffffff1673ffffffffffffffffffffffffffffffffffffffff166370a08231306040518263ffffffff1660e01b815260040161141291906119d8565b602060405180830381865afa15801561142f573d6000803e3d6000fd5b505050506040513d601f19601f820116820180604052508101906114539190611ca0565b9050604051806060016040528084815260200183815260200182815250935050505090565b6000811480611502575060008373ffffffffffffffffffffffffffffffffffffffff1663dd62ed3e30856040518363ffffffff1660e01b81526004016114bf929190612118565b602060405180830381865afa1580156114dc573d6000803e3d6000fd5b505050506040513d601f19601f820116820180604052508101906115009190611ca0565b145b611541576040517f08c379a0000000000000000000000000000000000000000000000000000000008152600401611538906121b3565b60405180910390fd5b6115c28363095ea7b360e01b8484604051602401611560929190611e73565b604051602081830303815290604052907bffffffffffffffffffffffffffffffffffffffffffffffffffffffff19166020820180517bffffffffffffffffffffffffffffffffffffffffffffffffffffffff83818316178352505050506115c7565b505050565b6000611629826040518060400160405280602081526020017f5361666545524332303a206c6f772d6c6576656c2063616c6c206661696c65648152508573ffffffffffffffffffffffffffffffffffffffff1661168e9092919063ffffffff16565b905060008151111561168957808060200190518101906116499190611cf9565b611688576040517f08c379a000000000000000000000000000000000000000000000000000000000815260040161167f90612245565b60405180910390fd5b5b505050565b606061169d84846000856116a6565b90509392505050565b6060824710156116eb576040517f08c379a00000000000000000000000000000000000000000000000000000000081526004016116e2906122d7565b60405180910390fd5b6116f4856117ba565b611733576040517f08c379a000000000000000000000000000000000000000000000000000000000815260040161172a90612343565b60405180910390fd5b6000808673ffffffffffffffffffffffffffffffffffffffff16858760405161175c91906123dd565b60006040518083038185875af1925050503d8060008114611799576040519150601f19603f3d011682016040523d82523d6000602084013e61179e565b606091505b50915091506117ae8282866117dd565b92505050949350505050565b6000808273ffffffffffffffffffffffffffffffffffffffff163b119050919050565b606083156117ed5782905061183d565b6000835111156118005782518084602001fd5b816040517f08c379a00000000000000000000000000000000000000000000000000000000081526004016118349190612449565b60405180910390fd5b9392505050565b6040518060600160405280600390602082028036833780820191505090505090565b600080fd5b6000819050919050565b61187e8161186b565b811461188957600080fd5b50565b60008135905061189b81611875565b92915050565b6000806000606084860312156118ba576118b9611866565b5b60006118c88682870161188c565b93505060206118d98682870161188c565b92505060406118ea8682870161188c565b9150509250925092565b6118fd8161186b565b82525050565b600060208201905061191860008301846118f4565b92915050565b600081600f0b9050919050565b6119348161191e565b811461193f57600080fd5b50565b6000813590506119518161192b565b92915050565b6000806040838503121561196e5761196d611866565b5b600061197c8582860161188c565b925050602061198d85828601611942565b9150509250929050565b600073ffffffffffffffffffffffffffffffffffffffff82169050919050565b60006119c282611997565b9050919050565b6119d2816119b7565b82525050565b60006020820190506119ed60008301846119c9565b92915050565b600060208284031215611a0957611a08611866565b5b6000611a178482850161188c565b91505092915050565b600060039050919050565b600081905092915050565b6000819050919050565b611a498161186b565b82525050565b6000611a5b8383611a40565b60208301905092915050565b6000602082019050919050565b611a7d81611a20565b611a878184611a2b565b9250611a9282611a36565b8060005b83811015611ac3578151611aaa8782611a4f565b9650611ab583611a67565b925050600181019050611a96565b505050505050565b6000606082019050611ae06000830184611a74565b92915050565b60008115159050919050565b611afb81611ae6565b82525050565b6000602082019050611b166000830184611af2565b92915050565b600060208284031215611b3257611b31611866565b5b6000611b4084828501611942565b91505092915050565b611b52816119b7565b8114611b5d57600080fd5b50565b600081359050611b6f81611b49565b92915050565b600060208284031215611b8b57611b8a611866565b5b6000611b9984828501611b60565b91505092915050565b600082825260208201905092915050565b7f4f776e61626c653a2063616c6c6572206973206e6f7420746865206f776e6572600082015250565b6000611be9602083611ba2565b9150611bf482611bb3565b602082019050919050565b60006020820190508181036000830152611c1881611bdc565b9050919050565b7f5265656e7472616e637947756172643a207265656e7472616e742063616c6c00600082015250565b6000611c55601f83611ba2565b9150611c6082611c1f565b602082019050919050565b60006020820190508181036000830152611c8481611c48565b9050919050565b600081519050611c9a81611875565b92915050565b600060208284031215611cb657611cb5611866565b5b6000611cc484828501611c8b565b91505092915050565b611cd681611ae6565b8114611ce157600080fd5b50565b600081519050611cf381611ccd565b92915050565b600060208284031215611d0f57611d0e611866565b5b6000611d1d84828501611ce4565b91505092915050565b7f4f776e61626c653a206e6577206f776e657220697320746865207a65726f206160008201527f6464726573730000000000000000000000000000000000000000000000000000602082015250565b6000611d82602683611ba2565b9150611d8d82611d26565b604082019050919050565b60006020820190508181036000830152611db181611d75565b9050919050565b6000608082019050611dcd6000830185611a74565b611dda60608301846118f4565b9392505050565b7f436f6e766578206973206e6f7420616363657074696e67206465706f7369747360008201527f20617420746865206d6f6d656e74000000000000000000000000000000000000602082015250565b6000611e3d602e83611ba2565b9150611e4882611de1565b604082019050919050565b60006020820190508181036000830152611e6c81611e30565b9050919050565b6000604082019050611e8860008301856119c9565b611e9560208301846118f4565b9392505050565b6000606082019050611eb160008301866118f4565b611ebe60208301856118f4565b611ecb6040830184611af2565b949350505050565b7f546865726520617265206e6f20636c61696d61626c652072657761726473207360008201527f6f2077652063616e6e6f742063616c6c20746869732066756e6374696f6e206160208201527f7320697420747269657320746f20636c61696d20616e64206d696e74206e6f6e60408201527f2d6578697374656e742072657761726473000000000000000000000000000000606082015250565b6000611f7b607183611ba2565b9150611f8682611ed3565b608082019050919050565b60006020820190508181036000830152611faa81611f6e565b9050919050565b6000604082019050611fc660008301856118f4565b611fd36020830184611af2565b9392505050565b6000604082019050611fef60008301856118f4565b611ffc60208301846118f4565b9392505050565b600060808201905061201860008301856118f4565b6120256020830184611a74565b9392505050565b6120358161191e565b82525050565b600060608201905061205060008301866118f4565b61205d602083018561202c565b61206a60408301846118f4565b949350505050565b7f4e487b7100000000000000000000000000000000000000000000000000000000600052603260045260246000fd5b7f4e487b7100000000000000000000000000000000000000000000000000000000600052601160045260246000fd5b60006120db8261186b565b91507fffffffffffffffffffffffffffffffffffffffffffffffffffffffffffffffff820361210d5761210c6120a1565b5b600182019050919050565b600060408201905061212d60008301856119c9565b61213a60208301846119c9565b9392505050565b7f5361666545524332303a20617070726f76652066726f6d206e6f6e2d7a65726f60008201527f20746f206e6f6e2d7a65726f20616c6c6f77616e636500000000000000000000602082015250565b600061219d603683611ba2565b91506121a882612141565b604082019050919050565b600060208201905081810360008301526121cc81612190565b9050919050565b7f5361666545524332303a204552433230206f7065726174696f6e20646964206e60008201527f6f74207375636365656400000000000000000000000000000000000000000000602082015250565b600061222f602a83611ba2565b915061223a826121d3565b604082019050919050565b6000602082019050818103600083015261225e81612222565b9050919050565b7f416464726573733a20696e73756666696369656e742062616c616e636520666f60008201527f722063616c6c0000000000000000000000000000000000000000000000000000602082015250565b60006122c1602683611ba2565b91506122cc82612265565b604082019050919050565b600060208201905081810360008301526122f0816122b4565b9050919050565b7f416464726573733a2063616c6c20746f206e6f6e2d636f6e7472616374000000600082015250565b600061232d601d83611ba2565b9150612338826122f7565b602082019050919050565b6000602082019050818103600083015261235c81612320565b9050919050565b600081519050919050565b600081905092915050565b60005b8381101561239757808201518184015260208101905061237c565b838111156123a6576000848401525b50505050565b60006123b782612363565b6123c1818561236e565b93506123d1818560208601612379565b80840191505092915050565b60006123e982846123ac565b915081905092915050565b600081519050919050565b6000601f19601f8301169050919050565b600061241b826123f4565b6124258185611ba2565b9350612435818560208601612379565b61243e816123ff565b840191505092915050565b600060208201905081810360008301526124638184612410565b90509291505056fea2646970667358221220ce3afc6cebea77b411954c1bcaf4c8b69ebe8e21728a97587cbf1b278720be2964736f6c634300080d0033",
  "immutableReferences": {},
  "source": "// SPDX-License-Identifier: MIT\npragma solidity ^0.8.3;\n\nimport \"@openzeppelin/contracts/token/ERC20/utils/SafeERC20.sol\";\nimport \"@openzeppelin/contracts/access/Ownable.sol\";\nimport \"@openzeppelin/contracts/security/ReentrancyGuard.sol\";\n\ninterface ICurve3Pool {\n   function add_liquidity(uint256[3] calldata amounts, uint256 min_mint_amount) external;\n   function remove_liquidity(uint256 _amount, uint256[3] calldata min_amounts) external;\n   function remove_liquidity_one_coin(uint256 _token_amount, int128 i, uint256 min_amount) external;\n   function balances(uint256 index) external view returns(uint256);\n}\n\ninterface ICURVE3LPToken {\n    function balanceOf(address addr) external view returns(uint256);\n    function approve(address _spender, uint256 _value) external returns(bool);\n}\n\ninterface IConvexBooster {\n    function deposit(uint256 _pid, uint256 _amount, bool _stake) external returns(bool);\n    function withdraw(uint256 _pid, uint256 _amount) external returns(bool);\n    function withdrawAll(uint256 _pid) external returns(bool);\n    function isShutdown() external view returns(bool);\n}\n\ninterface IConvexRewards {\n    function balanceOf(address _account) external view returns(uint256);\n    function withdraw(uint256 _amount, bool _claim) external returns(bool);\n    function earned(address account) external view returns (uint256);\n}\n\ncontract CurveConvexLP is Ownable, ReentrancyGuard {\n    using SafeERC20 for IERC20;\n\n    // Stablecoins\n    uint constant DAI_INDEX = 0;\n    uint constant USDC_INDEX = 1;\n    uint constant USDT_INDEX = 2;\n\n    address constant private DAI_ADDRESS = 0x6B175474E89094C44Da98b954EedeAC495271d0F;\n    address constant private USDC_ADDRESS = 0xA0b86991c6218b36c1d19D4a2e9Eb0cE3606eB48;\n    address constant private USDT_ADDRESS = 0xdAC17F958D2ee523a2206206994597C13D831ec7;\n    IERC20 constant private DAI = IERC20(DAI_ADDRESS);\n    IERC20 constant private USDC = IERC20(USDC_ADDRESS);\n    IERC20 constant private USDT = IERC20(USDT_ADDRESS);\n\n    IERC20[3] token = [DAI, USDC, USDT];\n\n    // ERC-20 Assets\n    address constant private CRV3LP_ADDRESS = 0x6c3F90f043a72FA612cbac8115EE7e52BDe6E490;\n    address constant private CONVEX_3CRV_TOKEN_ADDRESS = 0x30D9410ED1D5DA1F6C8391af5338C93ab8d4035C;\n    ICURVE3LPToken constant private CRV3LP_TOKEN = ICURVE3LPToken(CRV3LP_ADDRESS);\n\n    // Pools\n    uint256 constant private CONVEX_3POOL_PID = 9; // https://etherscan.io/address/0x9700152175dc22E7d1f3245fE3c1D2cfa3602548#readContract\n    address constant private CURVE3POOL_ADDRESS = 0xbEbc44782C7dB0a1A60Cb6fe97d0b483032FF1C7;\n    address constant private BOOSTER_CONTRACT_ADDRESS = 0xF403C135812408BFbE8713b5A23a04b3D48AAE31;\n    address constant private CONVEX_3POOL_REWARDS_ADDRESS = 0x689440f2Ff927E1f24c72F1087E1FAF471eCe1c8;\n    ICurve3Pool constant private CURVE3POOL = ICurve3Pool(CURVE3POOL_ADDRESS);\n    IConvexBooster constant private CONVEX_BOOSTER = IConvexBooster(BOOSTER_CONTRACT_ADDRESS);\n    IConvexRewards constant private CONVEX_3POOL_REWARDS = IConvexRewards(CONVEX_3POOL_REWARDS_ADDRESS);\n\n    // MAIN METHODS //\n\n    function oneShotLendAll() public onlyOwner nonReentrant {\n        lendAll();\n        uint256 CRV3LPBal = get3CRVLPBalance();\n        convexDeposit(CRV3LPBal, true);\n    }\n\n    function oneShotLend(uint256 daiAmount, uint256 usdcAmount, uint256 usdtAmount) public onlyOwner nonReentrant {\n        lend(daiAmount, usdcAmount, usdtAmount);\n        uint256 CRV3LPBal = get3CRVLPBalance();\n        convexDeposit(CRV3LPBal, true);\n    }\n\n    function oneShotWithdrawAll(int128 coinIndex) public onlyOwner nonReentrant {\n        uint256 stakedBal = getStakedConvexLPBalance();\n        convexUnstake(stakedBal);\n        convexWithdraw(stakedBal);\n        withdrawAllLP(coinIndex);\n    }\n\n    function oneShotWithdraw(uint256 toWithdrawInWei, int128 coinIndex) public onlyOwner nonReentrant {\n        convexUnstake(toWithdrawInWei);\n        convexWithdraw(toWithdrawInWei);\n        withdrawAllLP(coinIndex);\n    }\n\n    // MAIN METHODS //\n\n    // UTILITY METHODS - TODO re-run gas simulation + do for Swap + interest rate model script //\n\n    function isConvexShutdown() public view returns(bool) {\n        bool status = CONVEX_BOOSTER.isShutdown();\n        return status;\n    }\n\n    function getPoolBalanceToken(uint256 tokenIndex) public view returns(uint256) {\n        return CURVE3POOL.balances(tokenIndex);\n    }\n\n    function getPoolBalance() public view returns(uint256[3] memory) {\n        uint256 balDAI = getPoolBalanceToken(DAI_INDEX);\n        uint256 balUSDC = getPoolBalanceToken(USDC_INDEX);\n        uint256 balUSDT = getPoolBalanceToken(USDT_INDEX);\n        return [balDAI, balUSDC, balUSDT];\n    }\n\n    function getCallerBalance() view private returns(uint256[3] memory) {\n       uint256 balToken0 = token[0].balanceOf(address(this));\n       uint256 balToken1 = token[1].balanceOf(address(this));\n       uint256 balToken2 = token[2].balanceOf(address(this));\n       return [balToken0, balToken1, balToken2];\n    }\n\n\n    function approveLend(uint256[3] memory balance) private {\n        for (uint i = 0; i < balance.length; i++) {\n            token[i].safeApprove(CURVE3POOL_ADDRESS, balance[i]);\n        }\n    }\n\n    function get3CRVLPBalance() public view returns(uint256) {\n        return CRV3LP_TOKEN.balanceOf(address(this));\n    }\n\n    function getStakedConvexLPBalance() public view returns(uint256) {\n        return CONVEX_3POOL_REWARDS.balanceOf(address(this));\n    }\n\n    function getClaimableRewards() public view returns(uint256) {\n        return CONVEX_3POOL_REWARDS.earned(address(this));\n    }\n\n    // UTILITY METHODS //\n\n    // MODIFIERS //\n\n    modifier isNotShutdown {\n        require(!isConvexShutdown(), \"Convex is not accepting deposits at the moment\");\n        _;\n    }\n\n    modifier hasClaimableRewards {\n        uint256 rewards = getClaimableRewards();\n        require(rewards != 0, \"There are no claimable rewards so we cannot call this function as it tries to claim and mint non-existent rewards\");\n        _;\n    }\n\n    // MODIFIERS //\n\n    // INTERNAL METHODS //\n\n    function lendAll() private {\n        uint256[3] memory balance = getCallerBalance();\n        approveLend(balance);\n        uint256 min_mint_amount = 1;\n        CURVE3POOL.add_liquidity(balance, min_mint_amount);\n    }\n\n    function lend(uint256 daiAmount, uint256 usdcAmount, uint256 usdtAmount) private {\n        uint256[3] memory balance = [daiAmount, usdcAmount, usdtAmount];\n        approveLend(balance);\n        uint256 min_mint_amount = 1;\n        CURVE3POOL.add_liquidity(balance, min_mint_amount);\n    }\n\n    function withdrawAllLP(int128 coinIndex) private {\n        uint256 bal = get3CRVLPBalance();\n        if (coinIndex == -1) {\n            uint256[3] memory minAmount = [uint256(0), 0, 0];\n            CURVE3POOL.remove_liquidity(bal, minAmount);\n        } else {\n            uint256 minAmount = 0;\n            CURVE3POOL.remove_liquidity_one_coin(bal, coinIndex, minAmount);\n        }\n    }\n\n    function convexDeposit(uint256 amount, bool toStake) private isNotShutdown {\n        CRV3LP_TOKEN.approve(BOOSTER_CONTRACT_ADDRESS, amount);\n        CONVEX_BOOSTER.deposit(CONVEX_3POOL_PID, amount, toStake);\n    }\n\n    function convexUnstake(uint256 amount) private hasClaimableRewards {\n        CONVEX_3POOL_REWARDS.withdraw(amount, true);\n    }\n\n    function convexWithdraw(uint256 amount) private {\n        CONVEX_BOOSTER.withdraw(CONVEX_3POOL_PID, amount);\n    }\n\n    // INTERNAL METHODS //\n}",
  "sourcePath": "/Users/siddhi/repositories/personal/DeFiSandbox/contracts/LendingDeploy.sol",
  "compiler": {
    "name": "solc",
    "version": "0.8.13+commit.abaa5c0e.Emscripten.clang"
  },
  "schemaVersion": "3.4.7",
  "updatedAt": "2022-06-22T13:54:05.848Z",
  "networkType": "ethereum",
  "devdoc": {
    "kind": "dev",
    "methods": {
      "owner()": {
        "details": "Returns the address of the current owner."
      },
      "renounceOwnership()": {
        "details": "Leaves the contract without owner. It will not be possible to call `onlyOwner` functions anymore. Can only be called by the current owner. NOTE: Renouncing ownership will leave the contract without an owner, thereby removing any functionality that is only available to the owner."
      },
      "transferOwnership(address)": {
        "details": "Transfers ownership of the contract to a new account (`newOwner`). Can only be called by the current owner."
      }
    },
    "version": 1
  },
  "userdoc": {
    "kind": "user",
    "methods": {},
    "version": 1
  }
}