{
  "contractName": "CurveLending",
  "abi": [
    {
      "inputs": [],
      "name": "lendAll",
      "outputs": [],
      "stateMutability": "nonpayable",
      "type": "function"
    },
    {
      "inputs": [
        {
          "internalType": "uint256",
          "name": "daiAmount",
          "type": "uint256"
        },
        {
          "internalType": "uint256",
          "name": "usdcAmount",
          "type": "uint256"
        },
        {
          "internalType": "uint256",
          "name": "usdtAmount",
          "type": "uint256"
        }
      ],
      "name": "lend",
      "outputs": [],
      "stateMutability": "nonpayable",
      "type": "function"
    },
    {
      "inputs": [],
      "name": "get3CRVLPBalance",
      "outputs": [
        {
          "internalType": "uint256",
          "name": "",
          "type": "uint256"
        }
      ],
      "stateMutability": "view",
      "type": "function"
    },
    {
      "inputs": [
        {
          "internalType": "int128",
          "name": "coinIndex",
          "type": "int128"
        }
      ],
      "name": "withdrawAllLP",
      "outputs": [],
      "stateMutability": "nonpayable",
      "type": "function"
    },
    {
      "inputs": [
        {
          "internalType": "int128",
          "name": "coinIndex",
          "type": "int128"
        },
        {
          "internalType": "uint256",
          "name": "lpAmount",
          "type": "uint256"
        }
      ],
      "name": "withdrawLP",
      "outputs": [],
      "stateMutability": "nonpayable",
      "type": "function"
    },
    {
      "inputs": [
        {
          "internalType": "uint256",
          "name": "amount",
          "type": "uint256"
        },
        {
          "internalType": "bool",
          "name": "toStake",
          "type": "bool"
        }
      ],
      "name": "convexDeposit",
      "outputs": [],
      "stateMutability": "nonpayable",
      "type": "function"
    },
    {
      "inputs": [],
      "name": "getConvexLPBalance",
      "outputs": [
        {
          "internalType": "uint256",
          "name": "",
          "type": "uint256"
        }
      ],
      "stateMutability": "view",
      "type": "function"
    },
    {
      "inputs": [],
      "name": "getStakedConvexLPBalance",
      "outputs": [
        {
          "internalType": "uint256",
          "name": "",
          "type": "uint256"
        }
      ],
      "stateMutability": "view",
      "type": "function"
    },
    {
      "inputs": [],
      "name": "getClaimableRewards",
      "outputs": [
        {
          "internalType": "uint256",
          "name": "",
          "type": "uint256"
        }
      ],
      "stateMutability": "view",
      "type": "function"
    },
    {
      "inputs": [],
      "name": "getCRVBalance",
      "outputs": [
        {
          "internalType": "uint256",
          "name": "",
          "type": "uint256"
        }
      ],
      "stateMutability": "view",
      "type": "function"
    },
    {
      "inputs": [],
      "name": "getCVXBalance",
      "outputs": [
        {
          "internalType": "uint256",
          "name": "",
          "type": "uint256"
        }
      ],
      "stateMutability": "view",
      "type": "function"
    },
    {
      "inputs": [],
      "name": "claimRewards",
      "outputs": [],
      "stateMutability": "nonpayable",
      "type": "function"
    },
    {
      "inputs": [
        {
          "internalType": "uint256",
          "name": "amount",
          "type": "uint256"
        }
      ],
      "name": "convexUnstake",
      "outputs": [],
      "stateMutability": "nonpayable",
      "type": "function"
    },
    {
      "inputs": [
        {
          "internalType": "uint256",
          "name": "amount",
          "type": "uint256"
        }
      ],
      "name": "convexWithdraw",
      "outputs": [],
      "stateMutability": "nonpayable",
      "type": "function"
    },
    {
      "inputs": [],
      "name": "getGaugeBalance",
      "outputs": [
        {
          "internalType": "uint256",
          "name": "",
          "type": "uint256"
        }
      ],
      "stateMutability": "nonpayable",
      "type": "function"
    }
  ],
  "bytecode": "0x60806040526040518060600160405280736b175474e89094c44da98b954eedeac495271d0f73ffffffffffffffffffffffffffffffffffffffff1673ffffffffffffffffffffffffffffffffffffffff16815260200173a0b86991c6218b36c1d19d4a2e9eb0ce3606eb4873ffffffffffffffffffffffffffffffffffffffff1673ffffffffffffffffffffffffffffffffffffffff16815260200173dac17f958d2ee523a2206206994597c13d831ec773ffffffffffffffffffffffffffffffffffffffff1673ffffffffffffffffffffffffffffffffffffffff168152506000906003620000f192919062000106565b50348015620000ff57600080fd5b50620001a7565b826003810192821562000175579160200282015b82811115620001745782518260006101000a81548173ffffffffffffffffffffffffffffffffffffffff021916908373ffffffffffffffffffffffffffffffffffffffff160217905550916020019190600101906200011a565b5b50905062000184919062000188565b5090565b5b80821115620001a357600081600090555060010162000189565b5090565b611eeb80620001b76000396000f3fe608060405234801561001057600080fd5b50600436106100f55760003560e01c806376bb437611610097578063b737dc8d11610066578063b737dc8d14610210578063c9654a541461022e578063f7927ee11461024c578063ffe0cbc61461026a576100f5565b806376bb4376146101b057806386acae15146101cc5780638d7daef7146101d6578063b0afaae7146101f2576100f5565b8063372500ab116100d3578063372500ab146101505780633c5d432c1461015a5780635b39ed3c14610176578063708c283a14610194576100f5565b806302c1f1ec146100fa5780632bed89e51461011657806331c1a08f14610132575b600080fd5b610114600480360381019061010f9190611524565b610288565b005b610130600480360381019061012b9190611587565b6103f2565b005b61013a6104a8565b60405161014791906115e9565b60405180910390f35b610158610544565b005b610174600480360381019061016f919061163c565b6105cc565b005b61017e61070d565b60405161018b91906115e9565b60405180910390f35b6101ae60048036038101906101a9919061167c565b6107a2565b005b6101ca60048036038101906101c5919061167c565b610889565b005b6101d4610920565b005b6101f060048036038101906101eb91906116a9565b6109c0565b005b6101fa610b1e565b60405161020791906115e9565b60405180910390f35b610218610bb3565b60405161022591906115e9565b60405180910390f35b610236610c48565b60405161024391906115e9565b60405180910390f35b610254610cdd565b60405161026191906115e9565b60405180910390f35b610272610d72565b60405161027f91906115e9565b60405180910390f35b600061029261070d565b90507fffffffffffffffffffffffffffffffffffffffffffffffffffffffffffffffff82600f0b03610367576000604051806060016040528060008152602001600081526020016000815250905073bebc44782c7db0a1a60cb6fe97d0b483032ff1c773ffffffffffffffffffffffffffffffffffffffff1663ecb586a583836040518363ffffffff1660e01b815260040161032f929190611794565b600060405180830381600087803b15801561034957600080fd5b505af115801561035d573d6000803e3d6000fd5b50505050506103ee565b600073bebc44782c7db0a1a60cb6fe97d0b483032ff1c773ffffffffffffffffffffffffffffffffffffffff16631a4d01d28385846040518463ffffffff1660e01b81526004016103ba939291906117cc565b600060405180830381600087803b1580156103d457600080fd5b505af11580156103e8573d6000803e3d6000fd5b50505050505b5050565b6000604051806060016040528085815260200184815260200183815250905061041a81610e06565b60006001905073bebc44782c7db0a1a60cb6fe97d0b483032ff1c773ffffffffffffffffffffffffffffffffffffffff16634515cef383836040518363ffffffff1660e01b815260040161046f929190611803565b600060405180830381600087803b15801561048957600080fd5b505af115801561049d573d6000803e3d6000fd5b505050505050505050565b60008073bfcf63294ad7105dea65aa58f8ae5be2d9d0952a73ffffffffffffffffffffffffffffffffffffffff166333134583306040518263ffffffff1660e01b81526004016104f8919061186d565b6020604051808303816000875af1158015610517573d6000803e3d6000fd5b505050506040513d601f19601f8201168201806040525081019061053b919061189d565b90508091505090565b73689440f2ff927e1f24c72f1087e1faf471ece1c873ffffffffffffffffffffffffffffffffffffffff16633d18b9126040518163ffffffff1660e01b81526004016020604051808303816000875af11580156105a5573d6000803e3d6000fd5b505050506040513d601f19601f820116820180604052508101906105c991906118df565b50565b736c3f90f043a72fa612cbac8115ee7e52bde6e49073ffffffffffffffffffffffffffffffffffffffff1663095ea7b373f403c135812408bfbe8713b5a23a04b3d48aae31846040518363ffffffff1660e01b815260040161062f92919061190c565b6020604051808303816000875af115801561064e573d6000803e3d6000fd5b505050506040513d601f19601f8201168201806040525081019061067291906118df565b5073f403c135812408bfbe8713b5a23a04b3d48aae3173ffffffffffffffffffffffffffffffffffffffff166343a0d066600984846040518463ffffffff1660e01b81526004016106c593929190611944565b6020604051808303816000875af11580156106e4573d6000803e3d6000fd5b505050506040513d601f19601f8201168201806040525081019061070891906118df565b505050565b6000736c3f90f043a72fa612cbac8115ee7e52bde6e49073ffffffffffffffffffffffffffffffffffffffff166370a08231306040518263ffffffff1660e01b815260040161075c919061186d565b602060405180830381865afa158015610779573d6000803e3d6000fd5b505050506040513d601f19601f8201168201806040525081019061079d919061189d565b905090565b60006107ac610d72565b9050600081036107f1576040517f08c379a00000000000000000000000000000000000000000000000000000000081526004016107e890611a4a565b60405180910390fd5b73689440f2ff927e1f24c72f1087e1faf471ece1c873ffffffffffffffffffffffffffffffffffffffff166338d074368360016040518363ffffffff1660e01b8152600401610841929190611a6a565b6020604051808303816000875af1158015610860573d6000803e3d6000fd5b505050506040513d601f19601f8201168201806040525081019061088491906118df565b505050565b73f403c135812408bfbe8713b5a23a04b3d48aae3173ffffffffffffffffffffffffffffffffffffffff1663441a3e706009836040518363ffffffff1660e01b81526004016108d9929190611a93565b6020604051808303816000875af11580156108f8573d6000803e3d6000fd5b505050506040513d601f19601f8201168201806040525081019061091c91906118df565b5050565b600061092a610eb4565b905061093581610e06565b60006001905073bebc44782c7db0a1a60cb6fe97d0b483032ff1c773ffffffffffffffffffffffffffffffffffffffff16634515cef383836040518363ffffffff1660e01b815260040161098a929190611803565b600060405180830381600087803b1580156109a457600080fd5b505af11580156109b8573d6000803e3d6000fd5b505050505050565b7fffffffffffffffffffffffffffffffffffffffffffffffffffffffffffffffff82600f0b03610a93576000604051806060016040528060008152602001600081526020016000815250905073bebc44782c7db0a1a60cb6fe97d0b483032ff1c773ffffffffffffffffffffffffffffffffffffffff1663ecb586a583836040518363ffffffff1660e01b8152600401610a5b929190611794565b600060405180830381600087803b158015610a7557600080fd5b505af1158015610a89573d6000803e3d6000fd5b5050505050610b1a565b600073bebc44782c7db0a1a60cb6fe97d0b483032ff1c773ffffffffffffffffffffffffffffffffffffffff16631a4d01d28385846040518463ffffffff1660e01b8152600401610ae6939291906117cc565b600060405180830381600087803b158015610b0057600080fd5b505af1158015610b14573d6000803e3d6000fd5b50505050505b5050565b60007330d9410ed1d5da1f6c8391af5338c93ab8d4035c73ffffffffffffffffffffffffffffffffffffffff166370a08231306040518263ffffffff1660e01b8152600401610b6d919061186d565b602060405180830381865afa158015610b8a573d6000803e3d6000fd5b505050506040513d601f19601f82011682018060405250810190610bae919061189d565b905090565b600073689440f2ff927e1f24c72f1087e1faf471ece1c873ffffffffffffffffffffffffffffffffffffffff166370a08231306040518263ffffffff1660e01b8152600401610c02919061186d565b602060405180830381865afa158015610c1f573d6000803e3d6000fd5b505050506040513d601f19601f82011682018060405250810190610c43919061189d565b905090565b6000734e3fbd56cd56c3e72c1403e103b45db9da5b9d2b73ffffffffffffffffffffffffffffffffffffffff166370a08231306040518263ffffffff1660e01b8152600401610c97919061186d565b602060405180830381865afa158015610cb4573d6000803e3d6000fd5b505050506040513d601f19601f82011682018060405250810190610cd8919061189d565b905090565b600073d533a949740bb3306d119cc777fa900ba034cd5273ffffffffffffffffffffffffffffffffffffffff166370a08231306040518263ffffffff1660e01b8152600401610d2c919061186d565b602060405180830381865afa158015610d49573d6000803e3d6000fd5b505050506040513d601f19601f82011682018060405250810190610d6d919061189d565b905090565b600073689440f2ff927e1f24c72f1087e1faf471ece1c873ffffffffffffffffffffffffffffffffffffffff16628cc262306040518263ffffffff1660e01b8152600401610dc0919061186d565b602060405180830381865afa158015610ddd573d6000803e3d6000fd5b505050506040513d601f19601f82011682018060405250810190610e01919061189d565b905090565b60005b6003811015610eb057610e9d73bebc44782c7db0a1a60cb6fe97d0b483032ff1c7838360038110610e3d57610e3c611abc565b5b602002015160008460038110610e5657610e55611abc565b5b0160009054906101000a900473ffffffffffffffffffffffffffffffffffffffff1673ffffffffffffffffffffffffffffffffffffffff166110f89092919063ffffffff16565b8080610ea890611b1a565b915050610e09565b5050565b610ebc6114c4565b600080600060038110610ed257610ed1611abc565b5b0160009054906101000a900473ffffffffffffffffffffffffffffffffffffffff1673ffffffffffffffffffffffffffffffffffffffff166370a08231306040518263ffffffff1660e01b8152600401610f2c919061186d565b602060405180830381865afa158015610f49573d6000803e3d6000fd5b505050506040513d601f19601f82011682018060405250810190610f6d919061189d565b9050600080600160038110610f8557610f84611abc565b5b0160009054906101000a900473ffffffffffffffffffffffffffffffffffffffff1673ffffffffffffffffffffffffffffffffffffffff166370a08231306040518263ffffffff1660e01b8152600401610fdf919061186d565b602060405180830381865afa158015610ffc573d6000803e3d6000fd5b505050506040513d601f19601f82011682018060405250810190611020919061189d565b905060008060026003811061103857611037611abc565b5b0160009054906101000a900473ffffffffffffffffffffffffffffffffffffffff1673ffffffffffffffffffffffffffffffffffffffff166370a08231306040518263ffffffff1660e01b8152600401611092919061186d565b602060405180830381865afa1580156110af573d6000803e3d6000fd5b505050506040513d601f19601f820116820180604052508101906110d3919061189d565b9050604051806060016040528084815260200183815260200182815250935050505090565b6000811480611182575060008373ffffffffffffffffffffffffffffffffffffffff1663dd62ed3e30856040518363ffffffff1660e01b815260040161113f929190611b62565b602060405180830381865afa15801561115c573d6000803e3d6000fd5b505050506040513d601f19601f82011682018060405250810190611180919061189d565b145b6111c1576040517f08c379a00000000000000000000000000000000000000000000000000000000081526004016111b890611bfd565b60405180910390fd5b6112428363095ea7b360e01b84846040516024016111e092919061190c565b604051602081830303815290604052907bffffffffffffffffffffffffffffffffffffffffffffffffffffffff19166020820180517bffffffffffffffffffffffffffffffffffffffffffffffffffffffff8381831617835250505050611247565b505050565b60006112a9826040518060400160405280602081526020017f5361666545524332303a206c6f772d6c6576656c2063616c6c206661696c65648152508573ffffffffffffffffffffffffffffffffffffffff1661130e9092919063ffffffff16565b905060008151111561130957808060200190518101906112c991906118df565b611308576040517f08c379a00000000000000000000000000000000000000000000000000000000081526004016112ff90611c8f565b60405180910390fd5b5b505050565b606061131d8484600085611326565b90509392505050565b60608247101561136b576040517f08c379a000000000000000000000000000000000000000000000000000000000815260040161136290611d21565b60405180910390fd5b6113748561143a565b6113b3576040517f08c379a00000000000000000000000000000000000000000000000000000000081526004016113aa90611d8d565b60405180910390fd5b6000808673ffffffffffffffffffffffffffffffffffffffff1685876040516113dc9190611e27565b60006040518083038185875af1925050503d8060008114611419576040519150601f19603f3d011682016040523d82523d6000602084013e61141e565b606091505b509150915061142e82828661145d565b92505050949350505050565b6000808273ffffffffffffffffffffffffffffffffffffffff163b119050919050565b6060831561146d578290506114bd565b6000835111156114805782518084602001fd5b816040517f08c379a00000000000000000000000000000000000000000000000000000000081526004016114b49190611e93565b60405180910390fd5b9392505050565b6040518060600160405280600390602082028036833780820191505090505090565b600080fd5b600081600f0b9050919050565b611501816114eb565b811461150c57600080fd5b50565b60008135905061151e816114f8565b92915050565b60006020828403121561153a576115396114e6565b5b60006115488482850161150f565b91505092915050565b6000819050919050565b61156481611551565b811461156f57600080fd5b50565b6000813590506115818161155b565b92915050565b6000806000606084860312156115a05761159f6114e6565b5b60006115ae86828701611572565b93505060206115bf86828701611572565b92505060406115d086828701611572565b9150509250925092565b6115e381611551565b82525050565b60006020820190506115fe60008301846115da565b92915050565b60008115159050919050565b61161981611604565b811461162457600080fd5b50565b60008135905061163681611610565b92915050565b60008060408385031215611653576116526114e6565b5b600061166185828601611572565b925050602061167285828601611627565b9150509250929050565b600060208284031215611692576116916114e6565b5b60006116a084828501611572565b91505092915050565b600080604083850312156116c0576116bf6114e6565b5b60006116ce8582860161150f565b92505060206116df85828601611572565b9150509250929050565b600060039050919050565b600081905092915050565b6000819050919050565b61171281611551565b82525050565b60006117248383611709565b60208301905092915050565b6000602082019050919050565b611746816116e9565b61175081846116f4565b925061175b826116ff565b8060005b8381101561178c5781516117738782611718565b965061177e83611730565b92505060018101905061175f565b505050505050565b60006080820190506117a960008301856115da565b6117b6602083018461173d565b9392505050565b6117c6816114eb565b82525050565b60006060820190506117e160008301866115da565b6117ee60208301856117bd565b6117fb60408301846115da565b949350505050565b6000608082019050611818600083018561173d565b61182560608301846115da565b9392505050565b600073ffffffffffffffffffffffffffffffffffffffff82169050919050565b60006118578261182c565b9050919050565b6118678161184c565b82525050565b6000602082019050611882600083018461185e565b92915050565b6000815190506118978161155b565b92915050565b6000602082840312156118b3576118b26114e6565b5b60006118c184828501611888565b91505092915050565b6000815190506118d981611610565b92915050565b6000602082840312156118f5576118f46114e6565b5b6000611903848285016118ca565b91505092915050565b6000604082019050611921600083018561185e565b61192e60208301846115da565b9392505050565b61193e81611604565b82525050565b600060608201905061195960008301866115da565b61196660208301856115da565b6119736040830184611935565b949350505050565b600082825260208201905092915050565b7f546865726520617265206e6f20636c61696d61626c652072657761726473207360008201527f6f2077652063616e6e6f742063616c6c20746869732066756e6374696f6e206160208201527f7320697420747269657320746f20636c61696d20616e64206d696e74206e6f6e60408201527f2d6578697374656e742072657761726473000000000000000000000000000000606082015250565b6000611a3460718361197b565b9150611a3f8261198c565b608082019050919050565b60006020820190508181036000830152611a6381611a27565b9050919050565b6000604082019050611a7f60008301856115da565b611a8c6020830184611935565b9392505050565b6000604082019050611aa860008301856115da565b611ab560208301846115da565b9392505050565b7f4e487b7100000000000000000000000000000000000000000000000000000000600052603260045260246000fd5b7f4e487b7100000000000000000000000000000000000000000000000000000000600052601160045260246000fd5b6000611b2582611551565b91507fffffffffffffffffffffffffffffffffffffffffffffffffffffffffffffffff8203611b5757611b56611aeb565b5b600182019050919050565b6000604082019050611b77600083018561185e565b611b84602083018461185e565b9392505050565b7f5361666545524332303a20617070726f76652066726f6d206e6f6e2d7a65726f60008201527f20746f206e6f6e2d7a65726f20616c6c6f77616e636500000000000000000000602082015250565b6000611be760368361197b565b9150611bf282611b8b565b604082019050919050565b60006020820190508181036000830152611c1681611bda565b9050919050565b7f5361666545524332303a204552433230206f7065726174696f6e20646964206e60008201527f6f74207375636365656400000000000000000000000000000000000000000000602082015250565b6000611c79602a8361197b565b9150611c8482611c1d565b604082019050919050565b60006020820190508181036000830152611ca881611c6c565b9050919050565b7f416464726573733a20696e73756666696369656e742062616c616e636520666f60008201527f722063616c6c0000000000000000000000000000000000000000000000000000602082015250565b6000611d0b60268361197b565b9150611d1682611caf565b604082019050919050565b60006020820190508181036000830152611d3a81611cfe565b9050919050565b7f416464726573733a2063616c6c20746f206e6f6e2d636f6e7472616374000000600082015250565b6000611d77601d8361197b565b9150611d8282611d41565b602082019050919050565b60006020820190508181036000830152611da681611d6a565b9050919050565b600081519050919050565b600081905092915050565b60005b83811015611de1578082015181840152602081019050611dc6565b83811115611df0576000848401525b50505050565b6000611e0182611dad565b611e0b8185611db8565b9350611e1b818560208601611dc3565b80840191505092915050565b6000611e338284611df6565b915081905092915050565b600081519050919050565b6000601f19601f8301169050919050565b6000611e6582611e3e565b611e6f818561197b565b9350611e7f818560208601611dc3565b611e8881611e49565b840191505092915050565b60006020820190508181036000830152611ead8184611e5a565b90509291505056fea2646970667358221220f14507dc8b931d83f2704a2af547468ea8b08d764077203a16aae73feaa9ede964736f6c634300080d0033",
  "immutableReferences": {},
  "source": "// SPDX-License-Identifier: MIT\npragma solidity ^0.8.3;\n\nimport \"@openzeppelin/contracts/token/ERC20/utils/SafeERC20.sol\";\n\ninterface ICurve3Pool {\n   function add_liquidity(uint256[3] calldata amounts, uint256 min_mint_amount) external;\n   function remove_liquidity(uint256 _amount, uint256[3] calldata min_amounts) external;\n   function remove_liquidity_one_coin(uint256 _token_amount, int128 i, uint256 min_amount) external;\n}\n\ninterface ICURVE3LPToken {\n    function balanceOf(address addr) external view returns(uint256);\n    function approve(address _spender, uint256 _value) external returns(bool);\n}\n\n// Also known as the \"Deposit contract\"\ninterface IConvexBooster {\n    //deposit into convex, receive a tokenized deposit.  parameter to stake immediately\n    function deposit(uint256 _pid, uint256 _amount, bool _stake) external returns(bool);\n    //burn a tokenized deposit to receive curve lp tokens back\n    function withdraw(uint256 _pid, uint256 _amount) external returns(bool);\n    //burn all tokenized deposit to receive all curve lp tokens back\n    function withdrawAll(uint256 _pid) external returns(bool);\n}\n\ninterface IConvexRewards {\n    //get balance of an address\n    function balanceOf(address _account) external view returns(uint256);\n    //withdraw to a convex tokenized deposit\n    function withdraw(uint256 _amount, bool _claim) external returns(bool);\n    //withdraw directly to curve LP token\n    function withdrawAndUnwrap(uint256 _amount, bool _claim) external returns(bool);\n    //claim rewards\n    function getReward() external returns(bool);\n    //stake a convex tokenized deposit\n    function stake(uint256 _amount) external returns(bool);\n    //stake a convex tokenized deposit for another address(transfering ownership)\n    function stakeFor(address _account,uint256 _amount) external returns(bool);\n    //get earned awards of an address\n    function earned(address account) external view returns (uint256);\n}\n\ninterface ICurveGauge {\n    function claimable_tokens(address addr) external returns(uint256);\n}\n\ncontract CurveLending {\n    using SafeERC20 for IERC20;\n\n    uint constant DAI_INDEX = 0;\n    uint constant USDC_INDEX = 1;\n    uint constant USDT_INDEX = 2;\n\n    address constant private DAI_ADDRESS = 0x6B175474E89094C44Da98b954EedeAC495271d0F;\n    address constant private USDC_ADDRESS = 0xA0b86991c6218b36c1d19D4a2e9Eb0cE3606eB48;\n    address constant private USDT_ADDRESS = 0xdAC17F958D2ee523a2206206994597C13D831ec7;\n    IERC20 constant private DAI = IERC20(DAI_ADDRESS);\n    IERC20 constant private USDC = IERC20(USDC_ADDRESS);\n    IERC20 constant private USDT = IERC20(USDT_ADDRESS);\n\n    IERC20[3] token = [DAI, USDC, USDT];\n\n    address constant private CURVE3POOL_ADDRESS = 0xbEbc44782C7dB0a1A60Cb6fe97d0b483032FF1C7;\n    ICurve3Pool constant private CURVE3POOL = ICurve3Pool(CURVE3POOL_ADDRESS);\n\n    function lendAll() public {\n        uint256[3] memory balance = getBalance();\n        approveLend(balance);\n        uint256 min_mint_amount = 1;\n        CURVE3POOL.add_liquidity(balance, min_mint_amount);\n    }\n\n    function lend(uint256 daiAmount, uint256 usdcAmount, uint256 usdtAmount) public {\n        uint256[3] memory balance = [daiAmount, usdcAmount, usdtAmount];\n        approveLend(balance);\n        uint256 min_mint_amount = 1;\n        CURVE3POOL.add_liquidity(balance, min_mint_amount);\n    }\n\n    function getBalance() view private returns(uint256[3] memory) {\n       uint256 balToken0 = token[0].balanceOf(address(this));\n       uint256 balToken1 = token[1].balanceOf(address(this));\n       uint256 balToken2 = token[2].balanceOf(address(this));\n       return [balToken0, balToken1, balToken2];\n    }\n\n    function approveLend(uint256[3] memory balance) private {\n        for (uint i = 0; i < balance.length; i++) {\n            token[i].safeApprove(CURVE3POOL_ADDRESS, balance[i]);\n        }\n    }\n\n    address constant private CRV3LP_ADDRESS = 0x6c3F90f043a72FA612cbac8115EE7e52BDe6E490;\n    ICURVE3LPToken constant private CRV3LP_TOKEN = ICURVE3LPToken(CRV3LP_ADDRESS);\n\n    function get3CRVLPBalance() public view returns(uint256) {\n        return CRV3LP_TOKEN.balanceOf(address(this));\n    }\n\n    function withdrawAllLP(int128 coinIndex) public {\n        uint256 bal = get3CRVLPBalance();\n        if (coinIndex == -1) {\n            uint256[3] memory minAmount = [uint256(0), 0, 0];\n            CURVE3POOL.remove_liquidity(bal, minAmount);\n        } else {\n            uint256 minAmount = 0;\n            CURVE3POOL.remove_liquidity_one_coin(bal, coinIndex, minAmount);\n        }\n    }\n\n    function withdrawLP(int128 coinIndex, uint256 lpAmount) public {\n        if (coinIndex == -1) {\n            uint256[3] memory minAmount = [uint256(0), 0, 0];\n            CURVE3POOL.remove_liquidity(lpAmount, minAmount);\n        } else {\n            uint256 minAmount = 0;\n            CURVE3POOL.remove_liquidity_one_coin(lpAmount, coinIndex, minAmount);\n        }\n    }\n\n    // https://etherscan.io/address/0x9700152175dc22E7d1f3245fE3c1D2cfa3602548#readContract\n    uint256 constant private PID = 9;\n\n    address constant private BOOSTER_CONTRACT_ADDRESS = 0xF403C135812408BFbE8713b5A23a04b3D48AAE31;\n    IConvexBooster constant private CONVEX_BOOSTER = IConvexBooster(BOOSTER_CONTRACT_ADDRESS);\n    address constant private CONVEX_3POOL_REWARDS_ADDRESS = 0x689440f2Ff927E1f24c72F1087E1FAF471eCe1c8;\n    IConvexRewards constant private CONVEX_3POOL_REWARDS = IConvexRewards(CONVEX_3POOL_REWARDS_ADDRESS);\n    address constant private CONVEX_3CRV_TOKEN_ADDRESS = 0x30D9410ED1D5DA1F6C8391af5338C93ab8d4035C;\n    IERC20 constant private CONVEX_3CRV_TOKEN = IERC20(CONVEX_3CRV_TOKEN_ADDRESS);\n\n    function convexDeposit(uint256 amount, bool toStake) public {\n        CRV3LP_TOKEN.approve(BOOSTER_CONTRACT_ADDRESS, amount);\n        CONVEX_BOOSTER.deposit(PID, amount, toStake);\n    }\n\n    function getConvexLPBalance() public view returns(uint256) {\n        return CONVEX_3CRV_TOKEN.balanceOf(address(this));\n    }\n\n    function getStakedConvexLPBalance() public view returns(uint256) {\n        return CONVEX_3POOL_REWARDS.balanceOf(address(this));\n    }\n\n    function getClaimableRewards() public view returns(uint256) {\n        return CONVEX_3POOL_REWARDS.earned(address(this));\n    }\n\n    address constant private CRV_TOKEN_ADDRESS = 0xD533a949740bb3306d119CC777fa900bA034cd52;\n    IERC20 constant private CRV_TOKEN = IERC20(CRV_TOKEN_ADDRESS);\n\n    function getCRVBalance() public view returns(uint256) {\n        return CRV_TOKEN.balanceOf(address(this));\n    }\n\n    address constant private CVX_TOKEN_ADDRESS = 0x4e3FBD56CD56c3e72c1403e103b45Db9da5B9D2B;\n    IERC20 constant private CVX_TOKEN = IERC20(CVX_TOKEN_ADDRESS);\n\n    function getCVXBalance() public view returns(uint256) {\n        return CVX_TOKEN.balanceOf(address(this));\n    }\n\n    function claimRewards() public {\n        CONVEX_3POOL_REWARDS.getReward();\n    }\n\n    // TODO check when no rewards to claim (if need to normalise rewards w.r.t. ERC20 decimal)\n    modifier hasClaimableRewards {\n        uint256 rewards = getClaimableRewards();\n        require(rewards != 0, \"There are no claimable rewards so we cannot call this function as it tries to claim and mint non-existent rewards\");\n        _;\n    }\n\n    function convexUnstake(uint256 amount) public hasClaimableRewards {\n        CONVEX_3POOL_REWARDS.withdraw(amount, true);\n    }\n\n    function convexWithdraw(uint256 amount) public {\n        CONVEX_BOOSTER.withdraw(PID, amount);\n    }\n\n    address constant private CURVE_GAUGE_ADDRESS = 0xbFcF63294aD7105dEa65aA58F8AE5BE2D9d0952A;\n    ICurveGauge constant private CURVE_GAUGE = ICurveGauge(CURVE_GAUGE_ADDRESS);\n\n    function getGaugeBalance() public returns(uint256) {\n        uint256 bal = CURVE_GAUGE.claimable_tokens(address(this));\n        return bal;\n    }\n}",
  "sourcePath": "/root/DeFiSandbox/contracts/Lending.sol",
  "compiler": {
    "name": "solc",
    "version": "0.8.13+commit.abaa5c0e.Emscripten.clang"
  },
  "schemaVersion": "3.4.7",
  "updatedAt": "2022-05-23T10:53:28.370Z",
  "devdoc": {
    "kind": "dev",
    "methods": {},
    "version": 1
  },
  "userdoc": {
    "kind": "user",
    "methods": {},
    "version": 1
  }
}